:020000040800F2
:1000000000000320D1110008251100082D1100085F
:10001000351100083D1100084511000800000000DE
:100020000000000000000000000000004D1100086A
:100030005B1100080000000069110008771100083A
:1000400021120008211200082112000821120008C4
:1000500021120008211200082112000821120008B4
:1000600021120008211200082112000821120008A4
:100070008511000821120008211200082112000831
:100080002112000821120008211200082112000884
:100090002112000821120008211200082112000874
:1000A0002112000821120008211200082112000864
:1000B0002112000821120008211200082112000854
:1000C0002112000821120008211200082112000844
:1000D00021120008211200082112000899110008BD
:1000E0002112000821120008211200082112000824
:1000F0002112000821120008211200082112000814
:100100002112000821120008211200082112000803
:1001100021120008211200082112000821120008F3
:1001200021120008211200082112000821120008E3
:1001300021120008211200082112000821120008D3
:1001400021120008211200082112000821120008C3
:1001500021120008211200082112000821120008B3
:1001600021120008211200082112000821120008A3
:100170002112000821120008211200082112000893
:100180002112000821120008211200082112000883
:100190002112000821120008211200082112000873
:0C01A000211200082112000821120008A2
:1001AC0010B5054C237833B9044B13B10448AFF3A5
:1001BC0000800123237010BD0C0000200000000003
:1001CC005455000808B5034B1BB103490348AFF362
:1001DC00008008BD000000001000002054550008ED
:1001EC0053B94AB9002908BF00281CBF4FF0FF3192
:1001FC004FF0FF3000F088B9ADF1080C6DE904CE7A
:10020C0000F006F8DDF804E0DDE9022304B07047E5
:10021C002DE9F047089D0F4604468C46002B48D12B
:10022C008A42164661D9B2FA82F34BB1C3F120026D
:10023C0001FA03FC20FA02F29E4042EA0C0C9C40AC
:10024C004FEA164EB7B2BCFBFEF1220C0EFB11CCE2
:10025C0042EA0C4201FB07F0904209D9B21801F1B5
:10026C00FF3C80F0EE80904240F2EB800239324449
:10027C00121AA4B2B2FBFEF00EFB102244EA0244A6
:10028C0000FB07F7A74209D9341900F1FF3280F0BF
:10029C00DA80A74240F2D7803444023840EA014069
:1002AC00E41B00211DB1DC400023C5E90043BDE87F
:1002BC00F0878B4206D90DB1C5E900010021084633
:1002CC00BDE8F087B3FA83F1002948D1BB4202D3D1
:1002DC00824200F20781841A67EB030201209446E4
:1002EC00002DE4D0C5E9004CE1E7002A00F0928033
:1002FC00B2FA82F3002B40F0A8808A1A4FEA164E0D
:10030C001FFA86FC0121200CB2FBFEF70EFB172214
:10031C0040EA02420CFB07F0904207D9B21807F1F1
:10032C00FF3802D2904200F2E2804746121AA4B281
:10033C00B2FBFEF00EFB102244EA02440CFB00FC64
:10034C00A44507D9341900F1FF3202D2A44500F2BA
:10035C00CB801046A4EB0C0440EA0740A2E7C1F1A5
:10036C0020068B4022FA06FC4CEA030C07FA01F437
:10037C0020FA06F3F7404FEA1C49234300FA01F830
:10038C001FFA8CFEB7FBF9F01C0C09FB107744EA42
:10039C00074400FB0EF7A74202FA01F20AD91CEB44
:1003AC00040400F1FF3A80F09B80A74240F2988051
:1003BC0002386444E41B9FB2B4FBF9F309FB134409
:1003CC0047EA044403FB0EFEA64509D91CEB0404C2
:1003DC0003F1FF3780F08280A6457FD9023B64444D
:1003EC0043EA0040A4EB0E04A0FB02E7BC427346B8
:1003FC00B94663D360D05DB1B8EB030264EB09047A
:10040C0004FA06F622FA01F31E43CC40C5E9006457
:10041C0000214CE76208480842EAC1710B0C43EA20
:10042C0000438AB242EA0342B3FBF6F1E407B44656
:10043C003746B6461F23B0FBF6F0D21B41EA00410B
:10044C0061E7614614E7104628E7C3F1200120FA62
:10045C0001F29E4027FA01F19F403A434FEA164EB3
:10046C001FFA86FCB1FBFEF70EFB1710110C41EACC
:10047C00004107FB0CF8884504FA03F43AD97118CB
:10048C0007F1FF3001D288451FD8A1EB0801B1FB61
:10049C00FEF808FB0CF70EFB181192B242EA01426F
:1004AC00BA422FD2B21808F1FF31C6D2BA42C4D226
:1004BC00A8F102013244C0E7F0459CD2BEEB020326
:1004CC0067EB0C070138B94695E7A6EB08084144E1
:1004DC00B81EB1FBFEF808FB0CF7DCE73B467FE7E8
:1004EC00504667E70846FBE63444023832E7023FE1
:1004FC0032441BE7A1EB08013846B1FBFEF808FBC0
:10050C000CF7C8E7414698E7704700BF80B500AFCD
:10051C0000F082FE00F09AF800F0C2FA00F0A0FAA7
:10052C0000F0FEF800F04AF900F0A2F900F0FAF938
:10053C0000F03EFA00F066FA08213F4802F022FF74
:10054C0004213E4802F01EFF00213D4802F01AFF34
:10055C0001223C493C4803F0E7FB3A4B1B78312B1A
:10056C000FD1354B1B6840F2E732DA631E2000F0E6
:10057C00C5FE314B1B680022DA63324B00221A7025
:10058C00EBE7304B1B78322B0FD12C4B1B6840F216
:10059C00E7329A631E2000F0B1FE284B1B68002244
:1005AC009A63284B00221A70D7E7264B1B78332B03
:1005BC000FD1234B1B6840F2E7325A631E2000F028
:1005CC009DFE1F4B1B6800225A631E4B00221A70A3
:1005DC00C3E71C4B1B78342B21D1174B1B6840F203
:1005EC00E732DA63154B1B6840F2E7329A63144B1F
:1005FC001B6840F2E7325A63282000F07FFE0E4B56
:10060C001B680022DA630D4B1B6800229A630C4BAB
:10061C001B6800225A630B4B00221A709DE7064B95
:10062C001B680022DA63054B1B6800229A63044B9B
:10063C001B6800225A6390E75002002098020020A9
:10064C00E0020020B40800202803002080B594B0FC
:10065C0000AF07F1200330220021184604F048FFB8
:10066C0007F10C0300221A605A609A60DA601A6172
:10067C000023BB60284B1B6C274A43F08053136448
:10068C00254B1B6C03F08053BB60BB6800237B6065
:10069C00224B1B68214A43F4404313601F4B1B68D9
:1006AC0003F440437B607B6801233B624FF4A0233F
:1006BC007B620223BB634FF48003FB6308233B6420
:1006CC004FF4A8737B640223BB640723FB6407F11C
:1006DC002003184602F06EF90346002B01D000F0FF
:1006EC0075FA0F23FB6002233B6100237B614FF4FF
:1006FC00A053BB614FF48053FB6107F10C03052140
:10070C00184602F0CFFB0346002B01D000F05EFA36
:10071C0000BF5037BD4680BD00380240007000401D
:10072C0080B500AF1F4B204A1A60204B00221A7074
:10073C001E4B80225A701D4BE1229A701B4B0022DB
:10074C00DA701A4B00221A71184B00225A71154B91
:10075C00164A5A60134B4FF400029A60114B144A1C
:10076C00DA60104B134A1A610E4B40F2F4525A6184
:10077C000C4801F0FBFA0346002B01D000F026FADE
:10078C00382200210C4804F0B3FE0B4B21221A60D6
:10079C00094B4FF440025A61074B00221A6100BF0B
:1007AC0080BD00BFA001002000800240B8080020DE
:1007BC0000010020600000202800002080B58AB0D5
:1007CC0000AF07F1200300221A605A603B1D002283
:1007DC001A605A609A60DA601A615A619A61224B07
:1007EC00224A1A60204B53225A601F4B00229A60F7
:1007FC001D4B40F2E732DA601B4B00221A611A4B98
:10080C0000229A61184802F06DFD0346002B01D0BE
:10081C0000F0DCF900233B6200237B6207F120032C
:10082C001946114803F0B4F90346002B01D000F02F
:10083C00CDF960237B600023BB600023FB600023A9
:10084C007B613B1D08221946074802F063FE0346F4
:10085C00002B01D000F0BAF9034800F0F9FA00BF00
:10086C002837BD4680BD00BF500200200004004068
:10087C0080B58AB000AF07F1200300221A605A60DD
:10088C003B1D00221A605A609A60DA601A615A6144
:10089C009A61224B224A1A60204B53225A601F4BFA
:1008AC0000229A601D4B40F2E732DA601B4B0022AB
:1008BC001A611A4B00229A61184802F013FD034684
:1008CC00002B01D000F082F900233B6200237B62F5
:1008DC0007F120031946114803F05AF90346002B7F
:1008EC0001D000F073F960237B600023BB60002310
:1008FC00FB6000237B613B1D04221946074802F074
:10090C0009FE0346002B01D000F060F9034800F00B
:10091C009FFA00BF2837BD4680BD00BF980200205B
:10092C000008004080B588B000AF3B1D00221A6063
:10093C005A609A60DA601A615A619A611A4B1B4AC2
:10094C001A60194B53225A60174B00229A60164BAF
:10095C0040F2E732DA60144B00221A61124B00228B
:10096C009A61114802F0BEFC0346002B01D000F046
:10097C002DF960237B600023BB600023FB60002308
:10098C007B613B1D00221946074802F0C3FD03465C
:10099C00002B01D000F01AF9034800F059FA00BFFF
:1009AC002037BD4680BD00BFE0020020001800408B
:1009BC0080B500AF114B124A1A60104B4FF4E13264
:1009CC005A600E4B00229A600C4B0022DA600B4BE3
:1009DC0000221A61094B0C225A61084B00229A61C1
:1009EC00064B0022DA61054803F04EF90346002B52
:1009FC0001D000F0EBF800BF80BD00BF2803002041
:100A0C000048004080B500AF144B4FF0A0421A6074
:100A1C00124B04221A71114B0222DA710F4B002275
:100A2C009A710E4B02225A720C4B01229A720B4B8A
:100A3C000022DA72094B00221A73084B01229A73B6
:100A4C00064B0022DA73054801F0A5FE0346002B85
:100A5C0001D000F0BBF800BF80BD00BFD003002068
:100A6C0080B582B000AF00237B600C4B1B6B0B4A34
:100A7C0043F400131363094B1B6B03F400137B60EB
:100A8C007B68002200210C2000F037FD0C2000F0C8
:100A9C0050FD00BF0837BD4680BD00BF0038024086
:100AAC0080B58CB000AF07F11C0300221A605A60AD
:100ABC009A60DA601A610023BB61414B1B6B404AA0
:100ACC0043F0040313633E4B1B6B03F00403BB6145
:100ADC00BB6900237B613A4B1B6B394A43F08003A3
:100AEC001363374B1B6B03F080037B617B69002323
:100AFC003B61334B1B6B324A43F001031363304BA6
:100B0C001B6B03F001033B613B690023FB602C4B27
:100B1C001B6B2B4A43F002031363294B1B6B03F033
:100B2C000203FB60FB680023BB60254B1B6B244A54
:100B3C0043F008031363224B1B6B03F00803BB60E9
:100B4C00BB6800237B601E4B1B6B1D4A43F04003AC
:100B5C0013631B4B1B6B03F040037B607B68002211
:100B6C004021184801F0FEFD4FF40053FB614FF497
:100B7C0088133B6200237B6207F11C031946124861
:100B8C0001F044FC4023FB6101233B6200237B62A8
:100B9C000023BB6207F11C0319460A4801F036FC1E
:100BAC008023FB6100233B6200237B6207F11C0363
:100BBC001946044801F02AFC00BF3037BD4680BD01
:100BCC0000380240001802400008024080B400AF18
:100BDC0072B600BF00BFFDE780B483B000AF002346
:100BEC007B60104B5B6C0F4A43F4804353640D4B9A
:100BFC005B6C03F480437B607B6800233B60094B98
:100C0C001B6C084A43F080531364064B1B6C03F0B7
:100C1C0080533B603B6800BF0C37BD465DF8047BDE
:100C2C00704700BF0038024080B58EB000AF7860CE
:100C3C0007F1240300221A605A609A60DA601A6184
:100C4C007B681B68554A934240F0A48000233B62AA
:100C5C00534B1B6B524A43F000731363504B1B6B8B
:100C6C0003F000733B623B6A0023FB614C4B1B6B34
:100C7C004B4A43F080631363494B1B6B03F0806357
:100C8C00FB61FB690023BB61454B1B6B444A43F082
:100C9C0000631363424B1B6B03F00063BB61BB69C6
:100CAC0000237B613E4B1B6B3D4A43F004031363F3
:100CBC003B4B1B6B03F004037B617B6900233B61A3
:100CCC00374B1B6B364A43F001031363344B1B6BDE
:100CDC0003F001033B613B690023FB60304B1B6B52
:100CEC002F4A43F0020313632D4B1B6B03F00203DB
:100CFC00FB60FB680023BB60294B1B6B284A43F04D
:100D0C0040031363264B1B6B03F04003BB60BB68B3
:100D1C0032237B620223BB620023FB6203233B630F
:100D2C000B237B6307F1240319461E4801F06EFB6D
:100D3C0086237B620223BB620023FB6203233B639B
:100D4C000B237B6307F124031946174801F05EFB64
:100D5C004FF400537B620223BB620023FB6203232C
:100D6C003B630B237B6307F1240319460F4801F007
:100D7C004DFB4FF420537B620223BB620023FB62CA
:100D8C0003233B630B237B6307F1240319460848B9
:100D9C0001F03CFB00BF3837BD4680BD00800240EF
:100DAC0000380240000802400000024000040240EB
:100DBC000018024080B487B000AF78607B681B6875
:100DCC001F4A93420ED100237B611E4B1B6C1D4AA4
:100DDC0043F0020313641B4B1B6C03F002037B6197
:100DEC007B6926E07B681B68174A93420ED100236F
:100DFC003B61144B1B6C134A43F004031364114BFB
:100E0C001B6C03F004033B613B6912E07B681B68BD
:100E1C000E4A93420DD10023FB600A4B1B6C094A0E
:100E2C0043F040031364074B1B6C03F04003FB605F
:100E3C00FB6800BF1C37BD465DF8047B704700BFE4
:100E4C000004004000380240000800400018004038
:100E5C0080B58AB000AF786007F1140300221A60E5
:100E6C005A609A60DA601A617B681B68364A934252
:100E7C001ED100233B61354B1B6B344A43F00203FC
:100E8C001363324B1B6B03F002033B613B69012381
:100E9C007B610223BB610023FB6100233B620223C5
:100EAC007B6207F114031946294801F0AFFA47E0B9
:100EBC007B681B68274A93421ED10023FB60234B9F
:100ECC001B6B224A43F002031363204B1B6B03F092
:100EDC000203FB60FB6880237B610223BB61002360
:100EEC00FB6100233B6202237B6207F1140319466A
:100EFC00174801F08BFA23E07B681B68164A934273
:100F0C001ED10023BB60114B1B6B104A43F0020334
:100F1C0013630E4B1B6B03F00203BB60BB684FF4F7
:100F2C0080437B610223BB610023FB6100233B6296
:100F3C0009237B6207F114031946054801F066FA90
:100F4C0000BF2837BD4680BD000400400038024079
:100F5C0000040240000800400018004080B58AB030
:100F6C0000AF786007F1140300221A605A609A608F
:100F7C00DA601A617B681B68354A934263D100239F
:100F8C003B61344B1B6C334A43F480231364314B69
:100F9C001B6C03F480233B613B690023FB602D4BEE
:100FAC001B6B2C4A43F0080313632A4B1B6B03F097
:100FBC000803FB60FB684FF440737B610223BB6149
:100FCC000023FB6103233B6207237B6207F11403BD
:100FDC001946214801F01AFA204B214A1A601F4B7E
:100FEC004FF000625A601D4B00229A601B4B00228E
:100FFC00DA601A4B4FF480621A61184B00225A6166
:10100C00164B00229A61154B4FF48072DA61134B28
:10101C0000221A62114B00225A62104800F0A4FA06
:10102C000346002B01D0FFF7D1FD7B680B4ADA6336
:10103C000A4A7B68936300220021272000F05DFAA6
:10104C00272000F076FA00BF2837BD4680BD00BFD0
:10105C000048004000380240000C024070030020A1
:10106C002860024080B58AB000AF786007F11403A5
:10107C0000221A605A609A60DA601A617B681B68F9
:10108C00B3F1A04F3FD100233B61214B1B6B204A96
:10109C0043F0010313631E4B1B6B03F001033B6115
:1010AC003B694FF4E8537B610223BB610023FB6176
:1010BC0003233B620A237B6207F11403194615488C
:1010CC0001F0A4F94FF400737B610023BB61002392
:1010DC00FB6107F1140319460E4801F097F90C4B0C
:1010EC005B6B0B4A43F0800353630023FB60084B9C
:1010FC005B6C074A43F480435364054B5B6C03F40D
:10110C008043FB60FB6800BF2837BD4680BD00BF35
:10111C00003802400000024080B400AF00BFFDE781
:10112C0080B400AF00BFFDE780B400AF00BFFDE7A7
:10113C0080B400AF00BFFDE780B400AF00BFFDE797
:10114C0080B400AF00BFBD465DF8047B704780B42F
:10115C0000AF00BFBD465DF8047B704780B400AFA4
:10116C0000BFBD465DF8047B704780B500AF00F052
:10117C00A5F800BF80BD000080B500AF024800F0AC
:10118C008BFB00BF80BD00BF7003002080B500AF9B
:10119C00024802F0EFFD00BF80BD00BF2803002015
:1011AC0080B400AF064BD3F88830054A43F4700383
:1011BC00C2F8883000BFBD465DF8047B704700BFA5
:1011CC0000ED00E0DFF834D0FFF7EAFF0C480D49E2
:1011DC000D4A002302E0D458C4500433C4188C4286
:1011EC00F9D30A4A0A4C002301E013600432A242EC
:1011FC00FBD304F085F9FFF789F970470000032051
:10120C00000000200C0000209C5500080C00002061
:10121C00C4080020FEE7000080B500AF0E4B1B6831
:10122C000D4A43F4007313600B4B1B680A4A43F4DA
:10123C0080631360084B1B68074A43F48073136088
:10124C00032000F04FF9002000F008F8FFF7C4FC71
:10125C000023184680BD00BF003C024080B582B020
:10126C0000AF7860124B1A68124B1B7819464FF47A
:10127C007A73B3FBF1F3B2FBF3F3184600F067F9A2
:10128C000346002B01D001230EE07B680F2B0AD8FC
:10129C00002279684FF0FF3000F02FF9064A7B6886
:1012AC001360002300E0012318460837BD4680BDBB
:1012BC0000000020080000200400002080B400AFD3
:1012CC00064B1B781A46064B1B681344044A1360E2
:1012DC0000BFBD465DF8047B704700BF08000020CE
:1012EC00C008002080B400AF034B1B681846BD46F5
:1012FC005DF8047B704700BFC008002080B584B047
:10130C0000AF7860FFF7EEFFB8607B68FB60FB68AE
:10131C00B3F1FF3F05D00A4B1B781A46FB68134408
:10132C00FB6000BFFFF7DEFF0246BB68D31AFA680A
:10133C009A42F7D800BF00BF1037BD4680BD00BF32
:10134C000800002080B485B000AF78607B6803F0A3
:10135C000703FB600C4BDB68BB60BA684FF6FF03FE
:10136C001340BB60FB681A02BB68134343F0BF63B6
:10137C0043F40033BB60044ABB68D36000BF14372E
:10138C00BD465DF8047B704700ED00E080B400AF13
:10139C00044BDB681B0A03F007031846BD465DF8D7
:1013AC00047B704700ED00E080B483B000AF0346CF
:1013BC00FB7197F90730002B0BDBFB7903F01F0255
:1013CC00074997F907305B09012000FA02F241F84E
:1013DC00232000BF0C37BD465DF8047B704700BF6F
:1013EC0000E100E080B483B000AF03463960FB71CC
:1013FC0097F90730002B0ADB3B68DAB20C4997F9F6
:10140C0007301201D2B20B4483F800230AE03B6888
:10141C00DAB20849FB7903F00F03043B1201D2B294
:10142C000B441A7600BF0C37BD465DF8047B704741
:10143C0000E100E000ED00E080B489B000AFF8609E
:10144C00B9607A60FB6803F00703FB61FB69C3F1C9
:10145C000703042B28BF0423BB61FB690433062B51
:10146C0002D9FB69033B00E000237B614FF0FF32A4
:10147C00BB6902FA03F3DA43BB681A407B699A40F2
:10148C004FF0FF317B6901FA03F3D9437B680B40C2
:10149C00134318462437BD465DF8047B70470000A3
:1014AC0080B582B000AF78607B68013BB3F1807F80
:1014BC0001D301230FE00A4A7B68013B53600F21E3
:1014CC004FF0FF30FFF78EFF054B00229A60044B64
:1014DC0007221A60002318460837BD4680BD00BF9E
:1014EC0010E000E080B582B000AF78607868FFF75C
:1014FC0029FF00BF0837BD4680BD80B586B000AF60
:10150C000346B9607A60FB7300237B61FFF73EFFF3
:10151C0078617A68B9687869FFF78EFF024697F9A7
:10152C000F3011461846FFF75DFF00BF1837BD4658
:10153C0080BD80B582B000AF0346FB7197F90730D0
:10154C001846FFF731FF00BF0837BD4680BD80B598
:10155C0082B000AF78607868FFF7A2FF03461846A8
:10156C000837BD4680BD000080B586B000AF7860FE
:10157C0000237B61FFF7B6FE38617B68002B01D13D
:10158C00012399E07B68022283F835207B680022D6
:10159C0083F834207B681B681A687B681B6822F010
:1015AC0001021A600FE0FFF79DFE02463B69D31A59
:1015BC00052B08D97B6820225A657B68032283F8A7
:1015CC003520032378E07B681B681B6803F001035C
:1015DC00002BE8D17B681B681B687B617A69384BF0
:1015EC0013407B617B685A687B689B681A437B68F5
:1015FC00DB681A437B681B691A437B685B691A4377
:10160C007B689B691A437B68DB691A437B681B6A9E
:10161C0013437A6913437B617B685B6A042B07D1A4
:10162C007B68DA6A7B681B6B13437A6913437B61B3
:10163C007B681B687A691A607B681B685B697B61D5
:10164C007B6923F007037B617B685B6A7A691343D0
:10165C007B617B685B6A042B17D17B689B6A7A6918
:10166C0013437B617B68DB6A002B0ED0786800F03B
:10167C0001FB0346002B08D07B6840225A657B682F
:10168C00012283F83520012316E07B681B687A69F8
:10169C005A61786800F0B8FA0346FB607B68DB6D32
:1016AC003F229A40FB689A607B6800225A657B68EF
:1016BC00012283F83520002318461837BD4680BD1B
:1016CC003F8010F080B586B000AFF860B9607A60EA
:1016DC003B600023FB75FB689B6D3B61FB6893F8DB
:1016EC003430012B01D1022340E0FB68012283F846
:1016FC003420FB6893F83530DBB2012B2FD1FB681B
:10170C00022283F83520FB6800225A653B687A6810
:10171C00B968F86800F04AFAFB68DB6D3F229A4022
:10172C003B699A60FB681B681A68FB681B6842F08F
:10173C0016021A60FB681B6C002B07D0FB681B6839
:10174C001A68FB681B6842F008021A60FB681B6889
:10175C001A68FB681B6842F001021A6005E0FB681E
:10176C00002283F834200223FB75FB7D18461837C2
:10177C00BD4680BD80B584B000AF78607B689B6D42
:10178C00FB60FFF7AFFDB8607B6893F83530DBB2D8
:10179C00022B08D07B6880225A657B68002283F874
:1017AC003420012352E07B681B681A687B681B6835
:1017BC0022F016021A607B681B685A697B681B68EA
:1017CC0022F080025A617B681B6C002B03D17B6872
:1017DC009B6C002B07D07B681B681A687B681B68A6
:1017EC0022F008021A607B681B681A687B681B6809
:1017FC0022F001021A6013E0FFF774FD0246BB6889
:10180C00D31A052B0CD97B6820225A657B680322DE
:10181C0083F835207B68002283F83420032315E0FD
:10182C007B681B681B6803F00103002BE4D17B6809
:10183C00DB6D3F229A40FB689A607B68012283F83B
:10184C0035207B68002283F834200023184610379B
:10185C00BD4680BD80B483B000AF78607B6893F8E0
:10186C003530DBB2022B04D07B6880225A65012311
:10187C000CE07B68052283F835207B681B681A68AE
:10188C007B681B6822F001021A60002318460C3793
:10189C00BD465DF8047B704780B586B000AF7860BC
:1018AC000023BB608E4B1B688E4AA2FB03239B0A52
:1018BC007B617B689B6D3B613B691B68FB607B6854
:1018CC00DB6D08229A40FB681340002B1AD07B6812
:1018DC001B681B6803F00403002B13D07B681B6888
:1018EC001A687B681B6822F004021A607B68DB6D47
:1018FC0008229A403B699A607B685B6D43F0010259
:10190C007B685A657B68DB6D01229A40FB6813404B
:10191C00002B12D07B681B685B6903F08003002BE3
:10192C000BD07B68DB6D01229A403B699A607B6827
:10193C005B6D43F002027B685A657B68DB6D0422A9
:10194C009A40FB681340002B12D07B681B681B6805
:10195C0003F00203002B0BD07B68DB6D04229A4052
:10196C003B699A607B685B6D43F004027B685A6547
:10197C007B68DB6D10229A40FB681340002B43D030
:10198C007B681B681B6803F00803002B3CD07B684A
:10199C00DB6D10229A403B699A607B681B681B6860
:1019AC0003F48023002B18D07B681B681B6803F49E
:1019BC000023002B08D17B681B6C002B24D07B6888
:1019CC001B6C786898471FE07B689B6C002B1BD0C6
:1019DC007B689B6C7868984716E07B681B681B6873
:1019EC0003F48073002B07D17B681B681A687B6833
:1019FC001B6822F008021A607B681B6C002B03D05A
:101A0C007B681B6C786898477B68DB6D20229A405A
:101A1C00FB681340002B00F08F807B681B681B68F1
:101A2C0003F01003002B00F087807B68DB6D202215
:101A3C009A403B699A607B6893F83530DBB2052B92
:101A4C0036D17B681B681A687B681B6822F016020B
:101A5C001A607B681B685A697B681B6822F08002DD
:101A6C005A617B681B6C002B03D17B689B6C002B31
:101A7C0007D07B681B681A687B681B6822F0080219
:101A8C001A607B68DB6D3F229A403B699A607B68E9
:101A9C00012283F835207B68002283F834207B6890
:101AAC001B6D002B7ED07B681B6D7868984779E0A6
:101ABC007B681B681B6803F48023002B1DD07B689C
:101ACC001B681B6803F40023002B0DD17B685B6C37
:101ADC00002B31D07B685B6C786898472CE000BF9A
:101AEC0000000020B5814E1B7B68DB6B002B23D0E4
:101AFC007B68DB6B786898471EE07B681B681B680B
:101B0C0003F48073002B0FD17B681B681A687B6809
:101B1C001B6822F010021A607B68012283F83520C2
:101B2C007B68002283F834207B68DB6B002B03D0AE
:101B3C007B68DB6B786898477B685B6D002B32D0D9
:101B4C007B685B6D03F00103002B22D07B680522C0
:101B5C0083F835207B681B681A687B681B6822F049
:101B6C0001021A60BB680133BB607A699A4207D3E1
:101B7C007B681B681B6803F00103002BF2D100E0AB
:101B8C0000BF7B68012283F835207B68002283F834
:101B9C0034207B68DB6C002B05D07B68DB6C7868B1
:101BAC00984700E000BF1837BD4680BD80B485B0B3
:101BBC0000AFF860B9607A603B60FB681B681A681C
:101BCC00FB681B6822F480221A60FB681B683A6869
:101BDC005A60FB689B68402B08D1FB681B687A68CD
:101BEC009A60FB681B68BA68DA6007E0FB681B68E0
:101BFC00BA689A60FB681B687A68DA6000BF1437B1
:101C0C00BD465DF8047B704780B485B000AF78604A
:101C1C007B681B68DBB2103B144AA2FB03231B0935
:101C2C00FB60134AFB6813441B781A467B68DA6521
:101C3C00FB68032B09D97B681B6823F47F7323F0A3
:101C4C0003031A1D7B689A6507E07B681B6823F405
:101C5C007F7323F003037A6893657B689B6D18464A
:101C6C001437BD465DF8047B704700BFABAAAAAA27
:101C7C008455000880B485B000AF78600023FB73F6
:101C8C007B689B6ABB607B689B69002B1FD1BB6820
:101C9C00032B56D801A252F823F000BFB91C000840
:101CAC00CB1C0008B91C00084F1D00087B68DB6AC0
:101CBC0003F08073002B46D00123FB7343E07B6859
:101CCC00DB6AB3F1C07F40D10123FB733DE07B683D
:101CDC009B69B3F5005F21D1BB68032B37D801A2F8
:101CEC0052F823F0011D0008071D0008011D000813
:101CFC00191D00080123FB7330E07B68DB6A03F0DD
:101D0C008073002B25D00123FB7322E07B68DB6AF8
:101D1C00B3F1C07F1FD10123FB731CE0BB68022B06
:101D2C0003D9BB68032B03D018E00123FB7315E028
:101D3C007B68DB6A03F08073002B0ED00123FB73EE
:101D4C000BE000BF0AE000BF08E000BF06E000BFE8
:101D5C0004E000BF02E000BF00E000BFFB7B1846C0
:101D6C001437BD465DF8047B704700BF80B584B066
:101D7C0000AF78607B68002B01D101238AE07B687F
:101D8C00D3F88430002B06D17B682022C3F8842042
:101D9C007868FEF749FF0023BB60404B5B6C3F4A01
:101DAC0043F4804353643D4B5B6C03F48043BB6052
:101DBC00BB683B4B5B683A4A23F400035360384BD7
:101DCC005A687B689B68364913434B60344B5B689D
:101DDC007B681B6803F580531B687A68126843F0B4
:101DEC00010302F580521360FFF77CFAF86011E0F2
:101DFC00FFF778FA0246FB68D31AB3F5FA7F09D9D4
:101E0C007B680422C3F888207B68E022C3F8842016
:101E1C0001233FE07B681B6803F580531B6803F0CC
:101E2C000103002BE4D1786800F07AF9786800F0AF
:101E3C0025FA786800F07BFA7B685B681A4600210B
:101E4C00786800F0E3F97B681B68DA6B7B681B68C9
:101E5C0042F40272DA637B681B68D3F80C317A683F
:101E6C00126843F4003343F06003C2F80C317B6812
:101E7C001B68D3F810217B681B6842F40312C3F86B
:101E8C0010217B680022C3F888207B681022C3F8DD
:101E9C008420002318461037BD4680BD0038024010
:101EAC000038014080B584B000AF786039607B6841
:101EBC001B681B68FB60FA68534B1340FB603B6864
:101ECC009B7B5B063A68127C002A02D14FF400021D
:101EDC0000E0002213433A68527C002A02D14FF4EE
:101EEC00800200E000221A433B689B681A433B685F
:101EFC00DB7F1B041A433B685B6913433A68927F90
:101F0C00002A02D14FF4005200E000221A433B6831
:101F1C001B7F1B031A433B689B691A433B681B7965
:101F2C009B0213433A6892F82020002A02D14FF406
:101F3C00007200E000221A433B68DB7BDB011A4392
:101F4C003B685B6A1A433B6893F828301B011343C8
:101F5C00FA681343FB607B681B68FA681A607B683D
:101F6C001B681B68FB600120FFF7C8F97B681B68C6
:101F7C00FA681A607B681B689B69FB60FA684FF60D
:101F8C0041731340FB603B689B6C1B043A6892F8EE
:101F9C004C20002A01D1802200E000221A433B6829
:101FAC001B6D13433A6892F85520012A01D108227F
:101FBC0000E0002213433A6892F85620012A01D11E
:101FCC00042200E0002213433A6892F85420012ABC
:101FDC0001D1022200E000221343FA681343FB6094
:101FEC007B681B68FA689A617B681B689B69FB605D
:101FFC000120FFF783F97B681B68FA689A6100BFC0
:10200C001037BD4680BD00BF0F8120FD80B584B068
:10201C0000AF786039607B681B6803F580539B695F
:10202C00FB60FA683D4B1340FB603B681B7B002B4D
:10203C0002D14FF0806200E000223B685B7B5B06C4
:10204C0013433A68527F002A02D14FF4801200E009
:10205C0000221A433B689B7B5B051A433B685B6918
:10206C001A433B681B7FDB011A433B689B7F9B0138
:10207C001A433B681B6A1A433B6893F824309B0055
:10208C001343FA681343FB607B681B6803F58053AA
:10209C001A46FB6893617B681B6803F580539B6948
:1020AC00FB600120FFF72AF97B681B6803F580535E
:1020BC001A46FB6893613B681B795A063B689B6820
:1020CC001A433B689B691A433B681B691A433B687C
:1020DC0093F82530DB011A433B689B6A9B001A433B
:1020EC003B681B6813437A68126843F4000302F5DB
:1020FC00805213607B681B6803F580531B68FB6080
:10210C000120FFF7FBF87B681B6803F580531A4628
:10211C00FB68136000BF1037BD4680BD233FDEF85F
:10212C0080B5A6B000AF7860012387F84430012356
:10213C0087F845300023FB63002387F853300123D5
:10214C0087F85230002387F85030012387F842304B
:10215C00012387F83830002387F85430002387F8A0
:10216C0043300023BB65002387F85C300023FB67FA
:10217C00002387F880300023C7F88430002387F8C9
:10218C008A30002387F888304FF48043BB644FF4C7
:10219C000063FB64002387F8893007F13403194688
:1021AC007868FFF77FFE01233B7501237B750123C4
:1021BC0087F825300123BB750023FB61002387F8CA
:1021CC002430002387F826300023BB62012387F8D4
:1021DC002C3001233B734FF480333B614FF480036D
:1021EC003B624FF40053BB61012387F82D30002371
:1021FC003B630023BB6007F1080319467868FFF7BF
:10220C0005FF00BF9837BD4680BD000080B487B085
:10221C0000AFF860B9607A607B6805331B781B02ED
:10222C007A680432127813437B61BA68114B1344F9
:10223C001A467B6913607B6803331B781A067B682C
:10224C0002331B781B041A437B6801331B781B0277
:10225C0013437A68127813437B61BA68064B1344B4
:10226C001A467B69136000BF1C37BD465DF8047BC2
:10227C00704700BF408002404480024080B485B06B
:10228C0000AF78600023FB603EE07B68D968FA6899
:10229C0013469B001344DB000B44BB60BB6800225D
:1022AC001A60BB6800225A60BB6800229A60BB6847
:1022BC000022DA60B9687B68FA68063243F82210AB
:1022CC00BB681B6843F48012BB681A60FB68022B66
:1022DC000CD87B68D968FB685A1C13469B001344C6
:1022EC00DB000B441A46BB68DA6004E07B68DB68F1
:1022FC001A46BB68DA60BB681B6843F44002BB68D3
:10230C001A60FB680133FB60FB68032BBDD97B684B
:10231C0000229A627B68DA687B681B6803F580533D
:10232C001A6100BF1437BD465DF8047B704780B45A
:10233C0085B000AF78600023FB6048E07B681969CA
:10234C00FA6813469B001344DB000B44BB60BB686C
:10235C0000221A60BB6800225A60BB6800229A6097
:10236C00BB680022DA60BB6800221A62BB680022DC
:10237C005A62BB684FF000421A607B685B6943F499
:10238C008042BB685A60BB685B6823F00042BB6844
:10239C005A60B9687B68FA68123243F82210FB68FD
:1023AC00022B0CD87B681969FB685A1C13469B00DE
:1023BC001344DB000B441A46BB68DA6004E07B680C
:1023CC001B691A46BB68DA60FB680133FB60FB686B
:1023DC00032BB3D97B680022DA657B6800221A666E
:1023EC007B6800229A667B680022DA667B68002292
:1023FC009A657B681A697B681B6803F58053DA6001
:10240C0000BF1437BD465DF8047B704780B489B0BB
:10241C0000AF7860396000237B6100233B610023AF
:10242C00BB610023FB6177E10122FB6902FA03F334
:10243C007B613B681B687A6913403B613A697B6935
:10244C009A4240F066813B685B6803F00303012B02
:10245C0005D03B685B6803F00303022B30D17B682B
:10246C009B68BB61FB695B00032202FA03F3DB434D
:10247C00BA691340BB613B68DA68FB695B0002FA1E
:10248C0003F3BA691343BB617B68BA699A607B68D2
:10249C005B68BB610122FB6902FA03F3DB43BA6997
:1024AC001340BB613B685B681B0903F00102FB69CD
:1024BC0002FA03F3BA691343BB617B68BA695A60C9
:1024CC003B685B6803F00303032B17D07B68DB6866
:1024DC00BB61FB695B00032202FA03F3DB43BA69BD
:1024EC001340BB613B689A68FB695B0002FA03F31B
:1024FC00BA691343BB617B68BA69DA603B685B6895
:10250C0003F00303022B23D1FB69DA087B68083242
:10251C0053F82230BB61FB6903F007039B000F22C9
:10252C0002FA03F3DB43BA691340BB613B681A69D7
:10253C00FB6903F007039B0002FA03F3BA69134328
:10254C00BB61FB69DA087B680832B96943F8221071
:10255C007B681B68BB61FB695B00032202FA03F317
:10256C00DB43BA691340BB613B685B6803F0030251
:10257C00FB695B0002FA03F3BA691343BB617B6826
:10258C00BA691A603B685B6803F44033002B00F0B7
:10259C00C0800023FB60664B5B6C654A43F4804350
:1025AC005364634B5B6C03F48043FB60FB68614AD0
:1025BC00FB699B08023352F82330BB61FB6903F0C3
:1025CC0003039B000F2202FA03F3DB43BA691340A7
:1025DC00BB617B68584A934237D07B68574A934219
:1025EC0031D07B68564A93422BD07B68554A934234
:1025FC0025D07B68544A93421FD07B68534A934240
:10260C0019D07B68524A934213D07B68514A93424B
:10261C000DD07B68504A934207D07B684F4A934257
:10262C0001D1092312E00A2310E008230EE007234E
:10263C000CE006230AE0052308E0042306E003234C
:10264C0004E0022302E0012300E00023FA6902F017
:10265C00030292009340BA691343BB613549FB698D
:10266C009B080233BA6941F823203D4B9B68BB6140
:10267C003B69DB43BA691340BB613B685B6803F49D
:10268C008013002B03D0BA693B691343BB61344AF6
:10269C00BB699360324BDB68BB613B69DB43BA6956
:1026AC001340BB613B685B6803F40013002B03D041
:1026BC00BA693B691343BB61294ABB69D360284B98
:1026CC005B68BB613B69DB43BA691340BB613B6828
:1026DC005B6803F40033002B03D0BA693B691343E6
:1026EC00BB611F4ABB6953601D4B1B68BB613B69D7
:1026FC00DB43BA691340BB613B685B6803F480330E
:10270C00002B03D0BA693B691343BB61144ABB6904
:10271C001360FB690133FB61FB690F2B7FF684AE01
:10272C0000BF00BF2437BD465DF8047B704700BF77
:10273C000038024000380140000002400004024012
:10274C0000080240000C024000100240001402403D
:10275C0000180240001C02400020024000240240ED
:10276C00003C014080B483B000AF78600B467B80A6
:10277C0013467B707B78002B03D07A887B689A6138
:10278C0003E07B881A047B689A6100BF0C37BD4656
:10279C005DF8047B704780B586B002AF78607B68CB
:1027AC00002B01D1012301E17B681B68BB607B68B6
:1027BC0093F89534DBB2002B06D17B68002283F8AA
:1027CC0094247868FEF74EFC7B68032283F89524EA
:1027DC00BB68B3F1A04F02D17B6800229A717B6871
:1027EC001B68184602F0E2FB7B6818687B681A7C51
:1027FC008DF8002004330ECB02F074FB0346002B43
:10280C0005D07B68022283F895240123CEE07B68F7
:10281C001B680021184602F0DAFB0346002B05D09A
:10282C007B68022283F895240123BFE00023FB730D
:10283C004AE0FA7B79681346DB0013449B000B4497
:10284C00153301221A70FA7B79681346DB001344A6
:10285C009B000B441433FA7B1A70FA7BFB7B98B207
:10286C0079681346DB0013449B000B442E3302465D
:10287C001A80FA7B79681346DB0013449B000B44E7
:10288C00183300221A70FA7B79681346DB00134464
:10289C009B000B441C3300221A60FA7B79681346A8
:1028AC00DB0013449B000B44203300221A60FA7B9C
:1028BC0079681346DB0013449B000B44243300223D
:1028CC001A60FB7B0133FB737B681B79FA7B9A42A2
:1028DC00AFD30023FB7344E0FA7B79681346DB002B
:1028EC0013449B000B4403F2552300221A70FA7B0D
:1028FC0079681346DB0013449B000B4403F51573F6
:10290C00FA7B1A70FA7B79681346DB0013449B0040
:10291C000B4403F5167300221A70FA7B7968134680
:10292C00DB0013449B000B4403F5177300221A6061
:10293C00FA7B79681346DB0013449B000B4403F5C8
:10294C00187300221A60FA7B79681346DB00134473
:10295C009B000B4403F5197300221A60FB7B0133B7
:10296C00FB737B681B79FA7B9A42B5D37B6818683A
:10297C007B681A7C8DF8002004330ECB02F074FBBC
:10298C000346002B05D07B68022283F89524012393
:10299C000CE07B6800225A747B68012283F8952432
:1029AC007B681B68184602F03CFD00231846103764
:1029BC00BD4680BD80B586B000AF78607B68002BCB
:1029CC0001D1012367E27B681B6803F00103002B34
:1029DC0075D0884B9B6803F00C03042B0CD0854BF3
:1029EC009B6803F00C03082B12D1824B5B6803F439
:1029FC008003B3F5800F0BD17E4B1B6803F40033BF
:102A0C00002B5BD07B685B68002B57D1012342E223
:102A1C007B685B68B3F5803F06D1764B1B68754AC3
:102A2C0043F4803313601DE07B685B68B3F5A02F23
:102A3C000CD1704B1B686F4A43F4802313606D4BB1
:102A4C001B686C4A43F4803313600BE0694B1B68C2
:102A5C00684A23F480331360664B1B68654A23F481
:102A6C00802313607B685B68002B13D0FEF73AFC65
:102A7C00386108E0FEF736FC02463B69D31A642B3A
:102A8C0001D9032307E25B4B1B6803F40033002BD3
:102A9C00F0D014E0FEF726FC386108E0FEF722FCCB
:102AAC0002463B69D31A642B01D90323F3E1514B42
:102ABC001B6803F40033002BF0D100E000BF7B68EF
:102ACC001B6803F00203002B63D04A4B9B6803F096
:102ADC000C03002B0BD0474B9B6803F00C03082B0B
:102AEC001CD1444B5B6803F48003002B16D1414B83
:102AFC001B6803F00203002B05D07B68DB68012BFD
:102B0C0001D00123C7E13B4B1B6823F0F8027B6823
:102B1C001B69DB00374913430B603AE07B68DB68C9
:102B2C00002B20D0344B01221A60FEF7DBFB3861FE
:102B3C0008E0FEF7D7FB02463B69D31A022B01D9FA
:102B4C000323A8E12B4B1B6803F00203002BF0D0EE
:102B5C00284B1B6823F0F8027B681B69DB002549B6
:102B6C0013430B6015E0244B00221A60FEF7BAFBEE
:102B7C00386108E0FEF7B6FB02463B69D31A022B1C
:102B8C0001D9032387E11B4B1B6803F00203002BC5
:102B9C00F0D17B681B6803F00803002B36D07B68F0
:102BAC005B69002B16D0154B01221A60FEF79AFBBD
:102BBC00386108E0FEF796FB02463B69D31A022BFC
:102BCC0001D9032367E10B4B5B6F03F00203002B6E
:102BDC00F0D01BE0094B00221A60FEF783FB386132
:102BEC000EE0FEF77FFB02463B69D31A022B07D996
:102BFC00032350E10038024000004742800E474258
:102C0C00884B5B6F03F00203002BEAD17B681B68D7
:102C1C0003F00403002B00F097800023FB75814B1D
:102C2C001B6C03F08053002B0FD10023BB607D4B3A
:102C3C001B6C7C4A43F0805313647A4B1B6C03F07F
:102C4C008053BB60BB680123FB75774B1B6803F497
:102C5C008073002B18D1744B1B68734A43F4807338
:102C6C001360FEF73FFB386108E0FEF73BFB0246C2
:102C7C003B69D31A022B01D903230CE16A4B1B6865
:102C8C0003F48073002BF0D07B689B68012B06D17A
:102C9C00644B1B6F634A43F0010313671CE07B68B2
:102CAC009B68052B0CD15F4B1B6F5E4A43F00403F2
:102CBC0013675C4B1B6F5B4A43F0010313670BE01C
:102CCC00584B1B6F574A23F001031367554B1B6F6F
:102CDC00544A23F0040313677B689B68002B15D0C0
:102CEC00FEF700FB38610AE0FEF7FCFA02463B698E
:102CFC00D31A41F28832934201D90323CBE0494BDA
:102D0C001B6F03F00203002BEED014E0FEF7EAFA7F
:102D1C0038610AE0FEF7E6FA02463B69D31A41F243
:102D2C008832934201D90323B5E03E4B1B6F03F06D
:102D3C000203002BEED1FB7D012B05D1394B1B6C13
:102D4C00384A23F0805313647B689B69002B00F096
:102D5C00A180344B9B6803F00C03082B5CD07B6880
:102D6C009B69022B41D1314B00221A60FEF7BAFA53
:102D7C00386108E0FEF7B6FA02463B69D31A022B1B
:102D8C0001D9032387E0274B1B6803F00073002B4A
:102D9C00F0D17B68DA697B681B6A1A437B685B6AD3
:102DAC009B011A437B689B6A5B08013B1B041A431B
:102DBC007B68DB6A1B061B4913434B601B4B0122D0
:102DCC001A60FEF78FFA386108E0FEF78BFA0246BC
:102DDC003B69D31A022B01D903235CE0114B1B680E
:102DEC0003F00073002BF0D054E0104B00221A605B
:102DFC00FEF778FA386108E0FEF774FA02463B6990
:102E0C00D31A022B01D9032345E0064B1B6803F0B0
:102E1C000073002BF0D13DE07B689B69012B07D13F
:102E2C00012338E000380240007000406000474247
:102E3C001B4B5B68FB607B689B69012B28D0FB6894
:102E4C0003F480027B68DB699A4221D1FB6803F0B2
:102E5C003F027B681B6A9A421AD1FA6847F6C07324
:102E6C0013407A68526A9201934211D1FB6803F4C1
:102E7C0040327B689B6A5B08013B1B049A4207D17A
:102E8C00FB6803F070627B68DB6A1B069A4201D018
:102E9C00012300E0002318461837BD4680BD00BF53
:102EAC000038024080B584B000AF786039607B6830
:102EBC00002B01D10123CCE0684B1B6803F00F03FE
:102ECC003A689A420CD9654B3A68D2B21A70634B85
:102EDC001B6803F00F033A689A4201D00123B8E053
:102EEC007B681B6803F00203002B20D07B681B68F7
:102EFC0003F00403002B05D0594B9B68584A43F44C
:102F0C00E05393607B681B6803F00803002B05D02B
:102F1C00534B9B68524A43F460439360504B9B68FD
:102F2C0023F0F0027B689B684D4913438B607B68F0
:102F3C001B6803F00103002B44D07B685B68012BFA
:102F4C0007D1474B1B6803F40033002B19D1012325
:102F5C007FE07B685B68022B03D07B685B68032B8C
:102F6C0007D13F4B1B6803F00073002B09D10123E1
:102F7C006FE03B4B1B6803F00203002B01D10123D4
:102F8C0067E0374B9B6823F003027B685B6834492E
:102F9C0013438B60FEF7A6F9F8600AE0FEF7A2F97E
:102FAC000246FB68D31A41F28832934201D90323BB
:102FBC004FE02B4B9B6803F00C027B685B689B001B
:102FCC009A42EBD1254B1B6803F00F033A689A42E7
:102FDC000CD2224B3A68D2B21A70204B1B6803F009
:102FEC000F033A689A4201D0012332E07B681B68D8
:102FFC0003F00403002B08D0194B9B6823F4E05218
:10300C007B68DB68164913438B607B681B6803F095
:10301C000803002B09D0124B9B6823F460427B6899
:10302C001B69DB000E4913438B6000F021F802464C
:10303C000B4B9B681B0903F00F030A49CB5C22FA6C
:10304C0003F3094A1360094B1B681846FEF706F98F
:10305C00002318461037BD4680BD00BF003C02401F
:10306C00003802406C5500080000002004000020CD
:10307C002DE9B04F94B000AF00237B640023FB64B8
:10308C0000233B640023BB64794B9B6803F00C0367
:10309C00082B0DD0082B00F2E180002B02D0042B62
:1030AC0003D0DBE0734BBB64DBE0734BBB64D8E059
:1030BC006F4B5B6803F03F037B646D4B5B6803F401
:1030CC008003002B63D06A4B5B689B090022BB63B7
:1030DC00FA63BB6BC3F308033B6300237B63D7E941
:1030EC000C4522462B464FF000004FF000015901D1
:1030FC0041EAD261500102460B462146511A396110
:10310C00294663EB01037B614FF000024FF0000393
:10311C00D7E904AB59468B01514643EA91635146BA
:10312C008A015146B2EB0108594663EB01094FF095
:10313C0000024FF000034FEAC90343EA58734FEA09
:10314C00C80290469946234618EB0303BB602B46F6
:10315C0049EB0303FB604FF000024FF00003D7E98B
:10316C00024529464B02214643EAD15321464A02E5
:10317C00104619467B6C0022BB62FA62D7E90A231F
:10318C00FDF72EF802460B461346FB6458E0384B0D
:10319C005B689B09002218461146C0F308033B628A
:1031AC0000237B62D7E9088942464B464FF000006A
:1031BC004FF00001590141EAD261500102460B4621
:1031CC004146B2EB010A494663EB010B4FF000029A
:1031DC004FF000034FEA8B1343EA9A634FEA8A12CB
:1031EC00B2EB0A0463EB0B054FF000024FF0000347
:1031FC00EB0043EA5473E20014461D464346E318C1
:10320C003B604B4645EB03037B604FF000024FF0F5
:10321C000003D7E9004529468B02214643EA915326
:10322C0021468A02104619467B6C0022BB61FA616A
:10323C00D7E90623FCF7D4FF02460B461346FB6482
:10324C000B4B5B681B0C03F0030301335B003B640B
:10325C00FA6C3B6CB2FBF3F3BB6402E0054BBB6452
:10326C0000BFBB6C18465037BD46BDE8B08F00BFE1
:10327C00003802400024F40000127A0080B400AF41
:10328C00034B1B681846BD465DF8047B704700BFB6
:10329C000000002080B500AFFFF7F0FF0246054BA1
:1032AC009B689B0A03F007030349CB5C22FA03F3E8
:1032BC00184680BD003802407C55000880B500AF30
:1032CC00FFF7DCFF0246054B9B685B0B03F0070323
:1032DC000349CB5C22FA03F3184680BD0038024048
:1032EC007C55000880B582B000AF78607B68002BFD
:1032FC0001D1012341E07B6893F83D30DBB2002B18
:10330C0006D17B68002283F83C207868FDF752FDDB
:10331C007B68022283F83D207B681A687B68043343
:10332C001946104600F0B8F97B68012283F8462054
:10333C007B68012283F83E207B68012283F83F20C2
:10334C007B68012283F840207B68012283F84120AE
:10335C007B68012283F842207B68012283F843209A
:10336C007B68012283F844207B68012283F8452086
:10337C007B68012283F83D20002318460837BD46A0
:10338C0080BD000080B584B000AF786039603B68C8
:10339C00002B09D17B6893F83E30DBB2012B14BFB4
:1033AC0001230023DBB222E03B68042B09D17B68AC
:1033BC0093F83F30DBB2012B14BF01230023DBB2A7
:1033CC0015E03B68082B09D17B6893F84030DBB2E1
:1033DC00012B14BF01230023DBB208E07B6893F8B8
:1033EC004130DBB2012B14BF01230023DBB2002BD5
:1033FC0001D001237CE03B68002B04D17B680222C6
:10340C0083F83E2013E03B68042B04D17B68022236
:10341C0083F83F200BE03B68082B04D17B68022229
:10342C0083F8402003E07B68022283F841207B680C
:10343C001B6801223968184600F084FB7B681B6806
:10344C002D4A934204D07B681B682C4A934201D1CD
:10345C00012300E00023002B07D07B681B685A6C0B
:10346C007B681B6842F400425A647B681B68224AE2
:10347C00934222D07B681B68B3F1804F1DD07B68D0
:10348C001B681F4A934218D07B681B681D4A9342E5
:10349C0013D07B681B681C4A93420ED07B681B6858
:1034AC00164A934209D07B681B68184A934204D091
:1034BC007B681B68164A934211D17B681B689B681A
:1034CC0003F00703FB60FB68062B10D07B681B68BE
:1034DC001A687B681B6842F001021A6007E07B687F
:1034EC001B681A687B681B6842F001021A60002393
:1034FC0018461037BD4680BD000001400004014055
:10350C000004004000080040000C00400040014056
:10351C000018004080B586B000AFF860B9607A60E2
:10352C000023FB75FB6893F83C30012B01D102237F
:10353C00AEE0FB68012283F83C207B680C2B00F288
:10354C009F8001A252F823F0893500088D360008BF
:10355C008D3600088D360008C93500088D360008F8
:10356C008D3600088D3600080B3600088D360008A5
:10357C008D3600088D3600084B360008FB681B683A
:10358C00B968184600F02EF9FB681B689A69FB684D
:10359C001B6842F008029A61FB681B689A69FB6819
:1035AC001B6822F004029A61FB681B689969BB686E
:1035BC001A69FB681B680A439A6164E0FB681B6824
:1035CC00B968184600F07EF9FB681B689A69FB68BD
:1035DC001B6842F400629A61FB681B689A69FB687D
:1035EC001B6822F480629A61FB681B689969BB684E
:1035FC001B691A02FB681B680A439A6143E0FB686B
:10360C001B68B968184600F0D3F9FB681B68DA69C7
:10361C00FB681B6842F00802DA61FB681B68DA6918
:10362C00FB681B6822F00402DA61FB681B68D9692D
:10363C00BB681A69FB681B680A43DA6123E0FB6804
:10364C001B68B968184600F027FAFB681B68DA6932
:10365C00FB681B6842F40062DA61FB681B68DA697C
:10366C00FB681B6822F48062DA61FB681B68D9690D
:10367C00BB681B691A02FB681B680A43DA6102E02B
:10368C000123FB7500BFFB68002283F83C20FB7D07
:10369C0018461837BD4680BD80B485B000AF786041
:1036AC0039607B681B68FB607B68434A934213D08C
:1036BC007B68B3F1804F0FD07B68404A93420BD0AC
:1036CC007B683F4A934207D07B683E4A934203D0C3
:1036DC007B683D4A934208D1FB6823F07003FB6082
:1036EC003B685B68FA681343FB607B68324A934221
:1036FC002BD07B68B3F1804F27D07B682F4A934245
:10370C0023D07B682E4A93421FD07B682D4A93426C
:10371C001BD07B682C4A934217D07B682B4A934270
:10372C0013D07B682A4A93420FD07B68294A934274
:10373C000BD07B68284A934207D07B68274A934278
:10374C0003D07B68264A934208D1FB6823F440736C
:10375C00FB603B68DB68FA681343FB60FB6823F093
:10376C0080023B685B691343FB603B689A687B682B
:10377C00DA623B681A687B689A627B680E4A9342ED
:10378C0003D07B68104A934203D13B681A697B686B
:10379C001A637B681B6843F004027B681A607B68C1
:1037AC0001225A617B68FA681A6000BF1437BD4663
:1037BC005DF8047B704700BF00000140000400402E
:1037CC0000080040000C0040000401400040014093
:1037DC00004401400048014000180040001C00401B
:1037EC000020004080B487B000AF786039607B68FF
:1037FC001B6A7B617B681B6A23F001027B681A627F
:10380C007B685B683B617B689B69FB60FB6823F0B2
:10381C007003FB60FB6823F00303FB603B681B68D1
:10382C00FA681343FB607B6923F002037B613B68FE
:10383C009B687A6913437B617B68204A934203D06F
:10384C007B681F4A93420CD17B6923F008037B6190
:10385C003B68DB687A6913437B617B6923F0040363
:10386C007B617B68154A934203D07B68144A934270
:10387C0011D13B6923F480733B613B6923F40073E2
:10388C003B613B685B693A6913433B613B689B69ED
:10389C003A6913433B617B683A695A607B68FA6802
:1038AC009A613B685A687B685A637B687A691A62CA
:1038BC0000BF1C37BD465DF8047B7047000001401B
:1038CC000004014080B487B000AF786039607B6839
:1038DC001B6A7B617B681B6A23F010027B681A628F
:1038EC007B685B683B617B689B69FB60FB6823F4CE
:1038FC00E043FB60FB6823F44073FB603B681B6890
:10390C001B02FA681343FB607B6923F020037B6185
:10391C003B689B681B017A6913437B617B68224A75
:10392C00934203D07B68214A93420DD17B6923F0EB
:10393C0080037B613B68DB681B017A6913437B6105
:10394C007B6923F040037B617B68174A934203D069
:10395C007B68164A934213D13B6923F480633B6125
:10396C003B6923F400633B613B685B699B003A69EC
:10397C0013433B613B689B699B003A6913433B6172
:10398C007B683A695A607B68FA689A613B685A6846
:10399C007B689A637B687A691A6200BF1C37BD46E4
:1039AC005DF8047B704700BF00000140000401403B
:1039BC0080B487B000AF786039607B681B6A7B612C
:1039CC007B681B6A23F480727B681A627B685B6875
:1039DC003B617B68DB69FB60FB6823F07003FB6079
:1039EC00FB6823F00303FB603B681B68FA68134316
:1039FC00FB607B6923F400737B613B689B681B0253
:103A0C007A6913437B617B68214A934203D07B68BC
:103A1C00204A93420DD17B6923F400637B613B68A0
:103A2C00DB681B027A6913437B617B6923F4806337
:103A3C007B617B68164A934203D07B68154A93429C
:103A4C0013D13B6923F480533B613B6923F400534E
:103A5C003B613B685B691B013A6913433B613B6803
:103A6C009B691B013A6913433B617B683A695A6055
:103A7C007B68FA68DA613B685A687B68DA637B6852
:103A8C007A691A6200BF1C37BD465DF8047B70472B
:103A9C00000001400004014080B487B000AF7860A2
:103AAC0039607B681B6A3B617B681B6A23F480521C
:103ABC007B681A627B685B687B617B68DB69FB6097
:103ACC00FB6823F4E043FB60FB6823F44073FB606A
:103ADC003B681B681B02FA681343FB603B6923F4C9
:103AEC0000533B613B689B681B033A6913433B6182
:103AFC007B68124A934203D07B68114A934209D1E6
:103B0C007B6923F480437B613B685B699B017A6929
:103B1C0013437B617B687A695A607B68FA68DA6167
:103B2C003B685A687B681A647B683A691A6200BF02
:103B3C001C37BD465DF8047B704700BF0000014098
:103B4C000004014080B487B000AFF860B9607A60BF
:103B5C00BB6803F01F03012202FA03F37B61FB68CD
:103B6C001A6A7B69DB431A40FB681A62FB681A6AA3
:103B7C00BB6803F01F03796801FA03F31A43FB686F
:103B8C001A6200BF1C37BD465DF8047B704700000D
:103B9C0080B485B000AF786039607B6893F83C30B6
:103BAC00012B01D102235AE07B68012283F83C20CF
:103BBC007B68022283F83D207B681B685B68FB6096
:103BCC007B681B689B68BB60FB6823F07003FB6021
:103BDC003B681B68FA681343FB607B681B68FA68D8
:103BEC005A607B681B68214A934222D07B681B6811
:103BFC00B3F1804F1DD07B681B681D4A934218D0CF
:103C0C007B681B681B4A934213D07B681B681A4A5B
:103C1C0093420ED07B681B68184A934209D07B688C
:103C2C001B68174A934204D07B681B68154A934261
:103C3C000CD1BB6823F08003BB603B685B68BA683F
:103C4C001343BB607B681B68BA689A607B6801226F
:103C5C0083F83D207B68002283F83C200023184623
:103C6C001437BD465DF8047B704700BF000001406F
:103C7C000004004000080040000C0040000401401B
:103C8C00004001400018004080B582B000AF786061
:103C9C007B68002B01D1012342E07B6893F8413013
:103CAC00DBB2002B06D17B68002283F840207868B9
:103CBC00FDF754F97B68242283F841207B681B684C
:103CCC00DA687B681B6822F40052DA60786800F0CE
:103CDC0095FE7B681B681A697B681B6822F490420E
:103CEC001A617B681B685A697B681B6822F02A0280
:103CFC005A617B681B68DA687B681B6842F4005267
:103D0C00DA607B6800225A647B68202283F84120A9
:103D1C007B68202283F842207B6800225A630023B0
:103D2C0018460837BD4680BD80B584B000AFF8603A
:103D3C00B9601346FB80FB6893F84230DBB2202B52
:103D4C0012D1BB68002B02D0FB88002B01D10123C0
:103D5C000BE0FB6800221A63FB881A46B968F86806
:103D6C0000F0E4FB034600E0022318461037BD4682
:103D7C0080BD000080B5BAB000AF78607B681B686E
:103D8C001B68C7F8E4307B681B68DB68C7F8E03059
:103D9C007B681B685B69C7F8DC300023C7F8D83038
:103DAC000023C7F8D430D7F8E43003F00F03C7F87A
:103DBC00D830D7F8D830002B0FD1D7F8E43003F037
:103DCC002003002B09D0D7F8E03003F02003002BA0
:103DDC0003D0786800F054FD73E2D7F8D830002B8C
:103DEC0000F0DE80D7F8DC3003F00103002B06D1A5
:103DFC00D7F8E03003F49073002B00F0D180D7F8A3
:103E0C00E43003F00103002B0BD0D7F8E03003F4BF
:103E1C008073002B05D07B685B6C43F001027B68E0
:103E2C005A64D7F8E43003F00403002B0BD0D7F816
:103E3C00DC3003F00103002B05D07B685B6C43F096
:103E4C0002027B685A64D7F8E43003F00203002BBB
:103E5C000BD0D7F8DC3003F00103002B05D07B68C6
:103E6C005B6C43F004027B685A64D7F8E43003F0CF
:103E7C000803002B11D0D7F8E03003F02003002BFF
:103E8C0005D1D7F8DC3003F00103002B05D07B689B
:103E9C005B6C43F008027B685A647B685B6C002B9C
:103EAC0000F00A82D7F8E43003F02003002B08D08E
:103EBC00D7F8E03003F02003002B02D0786800F034
:103ECC00DFFC7B681B685B6903F04003402B0CBF75
:103EDC0001230023DBB2C7F8D4307B685B6C03F0A2
:103EEC000803002B03D1D7F8D430002B4FD07868BF
:103EFC0000F0EAFB7B681B685B6903F04003402B16
:103F0C0041D17B681B681433C7F89C30D7F89C30C0
:103F1C0053E8003FC7F89830D7F8983023F04003A7
:103F2C00C7F8D0307B681B681433D7F8D020C7F89B
:103F3C00A820C7F8A430D7F8A410D7F8A82041E8D7
:103F4C000023C7F8A030D7F8A030002BD9D17B685C
:103F5C00DB6B002B13D07B68DB6B8A4A1A657B68A2
:103F6C00DB6B1846FDF776FC0346002B16D07B68FE
:103F7C00DB6B1B6D7A68D26B104698470EE0786845
:103F8C0000F0C0F90AE0786800F0BCF906E0786847
:103F9C0000F0B8F97B6800225A648DE100BF8BE118
:103FAC007B681B6B012B40F06781D7F8E43003F082
:103FBC001003002B00F06081D7F8E03003F0100301
:103FCC00002B00F059810023BB607B681B681B68C9
:103FDC00BB607B681B685B68BB60BB687B681B68ED
:103FEC005B6903F04003402B40F0CE807B68DB6BB9
:103FFC001B685B68A7F8BE30B7F8BE30002B00F02A
:10400C00A9807B689B8DB7F8BE209A4280F0A28075
:10401C007B68B7F8BE20DA857B68DB6BDB69B3F5B0
:10402C00807F00F088807B681B680C33C7F8883071
:10403C00D7F8883053E8003FC7F88430D7F884307D
:10404C0023F48073C7F8B8307B681B680C33D7F83F
:10405C00B820C7F89420C7F89030D7F89010D7F84C
:10406C00942041E80023C7F88C30D7F88C30002B13
:10407C00D9D17B681B6814337B677B6F53E8003F97
:10408C003B673B6F23F00103C7F8B4307B681B68B8
:10409C001433D7F8B420C7F88020FB67F96FD7F832
:1040AC00802041E80023BB67BB6F002BE1D17B680C
:1040BC001B6814333B663B6E53E8003FFB65FB6D9E
:1040CC0023F04003C7F8B0307B681B681433D7F873
:1040DC00B020FA66BB66B96EFA6E41E800237B66C7
:1040EC007B6E002BE3D17B68202283F842207B6817
:1040FC0000221A637B681B680C33FB64FB6C53E86F
:10410C00003FBB64BB6C23F01003C7F8AC307B687A
:10411C001B680C33D7F8AC20BA657B65796DBA6D2A
:10412C0041E800233B653B6D002BE3D17B68DB6BE7
:10413C001846FDF71FFB7B6802225A637B689A8D39
:10414C007B68DB8D9BB2D31A9BB21946786800F062
:10415C00E3F8B3E07B689B8DB7F8BE209A4240F041
:10416C00AD807B68DB6BDB69B3F5807F40F0A680AC
:10417C007B6802225A637B689B8D1946786800F035
:10418C00CBF89BE09B4700087B689A8D7B68DB8DA6
:10419C009BB2D31AA7F8CE307B68DB8D9BB2002B79
:1041AC0000F08E80B7F8CE30002B00F089807B6851
:1041BC001B680C33BB63BB6B53E8003F7B637B6BAF
:1041CC0023F49073C7F8C8307B681B680C33D7F89E
:1041DC00C8207A643B64396C7A6C41E80023FB6339
:1041EC00FB6B002BE3D17B681B6814337B627B6A0F
:1041FC0053E8003F3B623B6A23F00103C7F8C4302D
:10420C007B681B681433D7F8C4203A63FB62F96AE5
:10421C003A6B41E80023BB62BB6A002BE3D17B689D
:10422C00202283F842207B6800221A637B681B687B
:10423C000C333B613B6953E8003FFB60FB6823F0A8
:10424C001003C7F8C0307B681B680C33D7F8C0204C
:10425C00FA61BB61B969FA6941E800237B617B694A
:10426C00002BE3D17B6802225A63B7F8CE30194693
:10427C00786800F051F823E0D7F8E43003F08003BD
:10428C00002B09D0D7F8E03003F08003002B03D0CB
:10429C00786800F08DFA14E0D7F8E43003F04003AE
:1042AC00002B0ED0D7F8E03003F04003002B08D0E1
:1042BC00786800F0CDFA04E000BF02E000BF00E037
:1042CC0000BFE837BD4680BD80B483B000AF7860D6
:1042DC0000BF0C37BD465DF8047B704780B483B0DB
:1042EC0000AF786000BF0C37BD465DF8047B7047AB
:1042FC0080B483B000AF786000BF0C37BD465DF86A
:10430C00047B704780B483B000AF786000BF0C377B
:10431C00BD465DF8047B704780B483B000AF786015
:10432C000B467B8000BF0C37BD465DF8047B7047A5
:10433C0080B59CB000AF78607B689B6BFB667B683C
:10434C001B681B6803F48073002B72D1FB6E002278
:10435C00DA85FB6E1B680C33FB64FB6C53E8003F87
:10436C00BB64BB6C23F48073BB66FB6E1B680C33A5
:10437C00BA6EBA657B65796DBA6D41E800233B6511
:10438C003B6D002BE5D1FB6E1B681433BB63BB6B21
:10439C0053E8003F7B637B6B23F001037B66FB6E72
:1043AC001B6814337A6E7A643B64396C7A6C41E81E
:1043BC000023FB63FB6B002BE5D1FB6E1B681433F6
:1043CC007B627B6A53E8003F3B623B6A23F040030D
:1043DC003B66FB6E1B6814333A6E3A63FB62F96AF8
:1043EC003A6B41E80023BB62BB6A002BE5D1FB6E44
:1043FC00202283F84220FB6E1B6B012B19D1FB6E24
:10440C001B680C333B613B6953E8003FFB60FB6866
:10441C0023F01003FB65FB6E1B680C33FA6DFA611D
:10442C00BB61B969FA6941E800237B617B69002BA8
:10443C00E5D1FB6E00225A63FB6E1B6B012B06D180
:10444C00FB6E9B8D1946F86EFFF766FF02E0F86E67
:10445C00FFF744FF00BF7037BD4680BD80B584B008
:10446C0000AF78607B689B6BFB60FB6801225A6332
:10447C00FB681B6B012B08D1FB689B8D5B089BB207
:10448C001946F868FFF748FF02E0F868FFF730FFBD
:10449C0000BF1037BD4680BD80B584B000AF7860DA
:1044AC000023FB607B689B6BBB60BB681B685B6914
:1044BC0003F08003802B0CBF01230023DBB2FB60D5
:1044CC00BB6893F84130DBB2212B08D1FB68002B81
:1044DC0005D0BB680022DA84B86800F0CDF8BB6860
:1044EC001B685B6903F04003402B0CBF01230023C6
:1044FC00DBB2FB60BB6893F84230DBB2222B08D1F5
:10450C00FB68002B05D0BB680022DA85B86800F088
:10451C00DBF8BB685B6C43F01002BB685A64B8688C
:10452C00FFF7F0FE00BF1037BD4680BD80B598B0D8
:10453C0000AFF860B9601346FB80BA68FB689A62FA
:10454C00FB68FA889A85FB6800225A64FB68222271
:10455C0083F84220FB68DB6B444ADA63FB68DB6B55
:10456C00434A1A64FB68DB6B424ADA64FB68DB6B18
:10457C0000221A6507F10803FB65FB68D86BFB6822
:10458C001B6804331946FB6D1A68FB88FDF79AF813
:10459C000346002B08D0FB6810225A64FB682022CB
:1045AC0083F8422001235DE000233B61FB681B681C
:1045BC001B683B61FB681B685B683B613B69FB6884
:1045CC001B69002B19D0FB681B680C333B643B6CDC
:1045DC0053E8003FFB63FB6B43F48073BB65FB68E4
:1045EC001B680C33BA6DFA64BB64B96CFA6C41E8A5
:1045FC0000237B647B6C002BE5D1FB681B681433B8
:10460C00FB62FB6A53E8003FBB62BB6A43F00103E9
:10461C007B65FB681B6814337A6DBA637B63796BBB
:10462C00BA6B41E800233B633B6B002BE5D1FB6885
:10463C001B681433BB61BB6953E8003F7B617B692A
:10464C0043F040033B65FB681B6814333A6D7A6298
:10465C003B62396A7A6A41E80023FB61FB69002BF3
:10466C00E5D1002318466037BD4680BD3D430008A8
:10467C0069440008A544000880B489B000AF786094
:10468C007B681B680C33FB60FB6853E8003FBB6026
:10469C00BB6823F0C003FB617B681B680C33FA69B1
:1046AC00BA617B617969BA6941E800233B613B6976
:1046BC00002BE5D17B68202283F8412000BF2437F2
:1046CC00BD465DF8047B704780B495B000AF786050
:1046DC007B681B680C337B637B6B53E8003F3B634D
:1046EC003B6B23F49073FB647B681B680C33FA6C94
:1046FC003A64FB63F96B3A6C41E80023BB63BB6B18
:10470C00002BE5D17B681B6814333B623B6A53E892
:10471C00003FFB61FB6923F00103BB647B681B68F2
:10472C001433BA6CFA62BB62B96AFA6A41E80023C4
:10473C007B627B6A002BE5D17B681B6B012B19D14B
:10474C007B681B680C33FB60FB6853E8003FBB6065
:10475C00BB6823F010037B647B681B680C337A6C9A
:10476C00BA617B617969BA6941E800233B613B69B5
:10477C00002BE5D17B68202283F842207B68002245
:10478C001A6300BF5437BD465DF8047B704780B593
:10479C0084B000AF78607B689B6BFB60FB68002289
:1047AC00DA85F868FFF7AEFD00BF1037BD4680BD57
:1047BC0080B485B000AF78607B6893F84130DBB291
:1047CC00212B3ED17B689B68B3F5805F14D17B684D
:1047DC001B69002B10D17B681B6AFB60FB681B8874
:1047EC001A467B681B68C2F308025A607B681B6A16
:1047FC009A1C7B681A6208E07B681B6A591C7A68F1
:10480C0011621A787B681B685A607B68DB8C9BB2E0
:10481C00013B9BB27A681946D184002B0FD17B687F
:10482C001B68DA687B681B6822F08002DA607B68A0
:10483C001B68DA687B681B6842F04002DA60002370
:10484C0000E0022318461437BD465DF8047B704720
:10485C0080B582B000AF78607B681B68DA687B68D3
:10486C001B6822F04002DA607B68202283F841202A
:10487C007868FFF729FD002318460837BD4680BD30
:10488C0080B58CB000AF78600023FB620023BB6264
:10489C007B6893F84230DBB2222B40F0AA807B6815
:1048AC009B68B3F5805F15D17B681B69002B11D118
:1048BC007B689B6ABB627B681B685B689BB2C3F3BB
:1048CC0008039AB2BB6A1A807B689B6A9A1C7B6845
:1048DC009A6224E07B689B6AFB627B689B68B3F5F9
:1048EC00805F07D07B689B68002B0AD17B681B69B3
:1048FC00002B06D17B681B685B68DAB2FB6A1A7006
:10490C0008E07B681B685B68DBB203F07F03DAB2FC
:10491C00FB6A1A707B689B6A5A1C7B689A627B687C
:10492C00DB8D9BB2013B9BB27A681946D185002B7B
:10493C005DD17B681B68DA687B681B6822F02002FB
:10494C00DA607B681B68DA687B681B6822F480720B
:10495C00DA607B681B685A697B681B6822F001026D
:10496C005A617B68202283F842207B6800225A63BC
:10497C007B681B6B012B35D17B6800221A637B682B
:10498C001B680C337B617B6953E8003F3B613B69DF
:10499C0023F010037B627B681B680C337A6A3A62E3
:1049AC00FB61F9693A6A41E80023BB61BB69002BE2
:1049BC00E5D17B681B681B6803F01003102B0AD130
:1049CC000023FB607B681B681B68FB607B681B68B3
:1049DC005B68FB60FB687B689B8D19467868FFF70A
:1049EC009BFC02E07868FFF779FC002302E00023CF
:1049FC0000E0022318463037BD4680BD2DE9B04F8C
:104A0C00C0B000AFC7F8F400D7F8F4301B681B69CE
:104A1C0023F44050D7F8F430D968D7F8F4301A683A
:104A2C0040EA01031361D7F8F4309A68D7F8F430F0
:104A3C001B691A43D7F8F4305B691A43D7F8F43082
:104A4C00DB691343C7F8F830D7F8F4301B68DB6820
:104A5C0023F4164121F00C01D7F8F4301A68D7F87A
:104A6C00F8300B43D360D7F8F4301B685B6923F440
:104A7C004070D7F8F4309969D7F8F4301A6840EAE6
:104A8C0001035361D7F8F4301A688F4B9A4205D062
:104A9C00D7F8F4301A688D4B9A4204D1FEF70EFC0D
:104AAC00C7F8FC0003E0FEF7F5FBC7F8FC00D7F8ED
:104ABC00F430DB69B3F5004F40F00C81D7F8FC30D3
:104ACC000022C7F8E830C7F8EC20D7E93A4522466F
:104ADC002B469118B9655B41FB65D7E91623214636
:104AEC0012EB0108294643EB01094FF000024FF08D
:104AFC0000034FEAC90343EA58734FEAC8029046D1
:104B0C009946234618EB0303C7F8E0302B4649EBD4
:104B1C000303C7F8E430D7F8F4305B680022C7F819
:104B2C00D830C7F8DC20D7E936120B46DB183B65CA
:104B3C00134642EB03037B65D7E91423D7E938010D
:104B4C00FBF74EFB02460B46614BA3FB02235B09B2
:104B5C001C01D7F8FC300022C7F8D030C7F8D4209D
:104B6C00D7E9348942464B469118B9645B41FB64E2
:104B7C00D7E91223414612EB010A494643EB010BDC
:104B8C004FF000024FF000034FEACB0343EA5A7395
:104B9C004FEACA0292469B4643461AEB0303C7F8F8
:104BAC00C8304B464BEB0303C7F8CC30D7F8F43086
:104BBC005B680022C7F8C030C7F8C420D7E93012B0
:104BCC000B46DB183B64134642EB03037B64D7E9CB
:104BDC001023D7E93201FBF703FB02460B461146C3
:104BEC003B4BA3FB01235B09642202FB03F3CB1AAF
:104BFC00DB0003F13202364BA3FB02235B095B00A3
:104C0C0003F4F8731C44D7F8FC300022C7F8B83012
:104C1C00C7F8BC20D7E92E8942464B469118B96398
:104C2C005B41FB63D7E90E23414651183963494672
:104C3C004B417B634FF000024FF00003D7E90CAB04
:104C4C005946CB00514643EA51735146CA001046AF
:104C5C001946034642469B18C7F8B0304B460A46E5
:104C6C0042EB0303C7F8B430D7F8F4305B6800228A
:104C7C00C7F8A830C7F8AC20D7E92A120B46DB18C6
:104C8C00BB62134642EB0303FB62D7E90A23D7E965
:104C9C002C01FBF7A5FA02460B460D4BA3FB0213A6
:104CAC005B09642101FB03F3D31ADB003233084A9E
:104CBC00A2FB03235B0903F00702D7F8F4301B684F
:104CCC0022449A6006E100BF00100140001401402C
:104CDC001F85EB51D7F8FC300022C7F8A030C7F87D
:104CEC00A420D7E9288942464B46911839625B418A
:104CFC007B62D7E9082341465418494643EB01052A
:104D0C004FF000024FF00003EB0043EA5473E20053
:104D1C0014461D464346E318C7F898304B4645EBFE
:104D2C000303C7F89C30D7F8F4305B680022C7F84F
:104D3C009030C7F894204FF000024FF00003D7E9F1
:104D4C00244529468B00214643EA917321468A006B
:104D5C00D7E92601FBF744FA02460B46604BA3FB4E
:104D6C0002235B091C01D7F8FC300022C7F88830FD
:104D7C00C7F88C20D7E9228942464B469118B96175
:104D8C005B41FB61D7E9062341465118396149461D
:104D9C004B417B614FF000024FF00003D7E904ABAD
:104DAC005946CB00514643EA51735146CA0010464E
:104DBC001946034642469B18C7F880304B460A46B4
:104DCC0042EB0303C7F88430D7F8F4305B68002259
:104DDC00BB67FA674FF000024FF00003D7E91E895A
:104DEC0049468B00414643EA917341468A00D7E914
:104DFC002001FBF7F5F902460B461146384BA3FB95
:104E0C0001235B09642202FB03F3CB1A1B0132332F
:104E1C00334AA2FB03235B0903F0F0031C44D7F8CD
:104E2C00FC3000223B677A67D7E91C8942464B4627
:104E3C009118B9605B41FB60D7E9022341465118D8
:104E4C00396049464B417B604FF000024FF0000344
:104E5C00D7E900AB5946CB00514643EA5173514652
:104E6C00CA0010461946034642469B18BB664B4681
:104E7C000A4642EB0303FB66D7F8F4305B6800226A
:104E8C003B667A664FF000024FF00003D7E91889B1
:104E9C0049468B00414643EA917341468A00D7E963
:104EAC001A01FBF79DF902460B460D4BA3FB0213AF
:104EBC005B09642101FB03F3D31A1B013233084A4B
:104ECC00A2FB03235B0903F00F02D7F8F4301B6835
:104EDC0022449A6000BF07F58077BD46BDE8B08FCD
:104EEC001F85EB5184B080B584B000AF786007F1BA
:104EFC001C0080E80E0097F82130012B23D17B6831
:104F0C009B6B23F480327B689A637B68DB6823F4A9
:104F1C00840323F040037A68D3607B68DB6823F456
:104F2C0040127B68DA6097F82830012B05D17B683A
:104F3C00DB6843F480127B68DA60786800F0A0FAD2
:104F4C000346FB731BE07B68DB6843F040027B6825
:104F5C00DA60786800F094FA0346FB7397F8253012
:104F6C00002B06D17B689B6B43F480327B689A6381
:104F7C0005E07B689B6B23F480327B689A63BB7F74
:104F8C00012B0BD17B689B6843F006027B689A600F
:104F9C007B689B6843F020027B689A60FB7B184619
:104FAC001037BD46BDE8804004B0704780B483B074
:104FBC0000AF78607B689B6823F001027B689A6085
:104FCC00002318460C37BD465DF8047B704780B54E
:104FDC0084B000AF78600B46FB700023FB607B68ED
:104FEC00DB6823F0C0427B68DA60FB78012B15D1BB
:104FFC007B68DB6843F000527B68DA600A20FCF7C0
:10500C007DF9FB680A33FB60786800F02BFA0346E5
:10501C00012B1ED0FB68C72BF0D91AE0FB78002BB4
:10502C0015D17B68DB6843F080427B68DA600A202C
:10503C00FCF764F9FB680A33FB60786800F012FA3D
:10504C000346002B05D0FB68C72BF0D901E00123E8
:10505C0005E0FB68C82B01D1012300E000231846B2
:10506C001037BD4680BD000084B080B586B000AF5F
:10507C00786007F1240080E80E000023FB757B6844
:10508C00FB6000233B6109E07A683B6940339B007D
:10509C00134400225A603B6901333B613B690E2B80
:1050AC00F2D997F82E30002B1CD1FB6803F5006366
:1050BC005B68FA6802F5006243F0020353607B6898
:1050CC009B6B43F400127B689A637B689B6B23F4A5
:1050DC0000227B689A637B689B6B23F480227B683D
:1050EC009A630BE07B689B6B23F400127B689A63DA
:1050FC007B689B6B43F400227B689A63FB6803F527
:10510C0060631A460023136097F82930012B0DD1E8
:10511C0097F82730002B04D10021786800F068F94B
:10512C0008E00121786800F063F903E00321786856
:10513C0000F05EF91021786800F0FAF80346002BB5
:10514C0001D00123FB75786800F024F90346002B8D
:10515C0001D00123FB75FB6803F500631A4600239D
:10516C001361FB6803F500631A4600235361FB6867
:10517C0003F500631A460023D36100233B6143E02F
:10518C003B695A01FB68134403F510631B6803F079
:10519C000043B3F1004F18D13B69002B0AD13B6996
:1051AC005A01FB68134403F510631A464FF0006371
:1051BC00136013E03B695A01FB68134403F5106359
:1051CC001A464FF09043136008E03B695A01FB68A4
:1051DC00134403F510631A46002313603B695A010C
:1051EC00FB68134403F510631A46002313613B69F3
:1051FC005A01FB68134403F510631A464FF67F33CC
:10520C0093603B6901333B6197F824301A463B6944
:10521C009342B5D300233B6143E03B695A01FB68E1
:10522C00134403F530631B6803F00043B3F1004FE4
:10523C0018D13B69002B0AD13B695A01FB68134416
:10524C0003F530631A464FF00063136013E03B69BB
:10525C005A01FB68134403F530631A464FF0904330
:10526C00136008E03B695A01FB68134403F5306393
:10527C001A46002313603B695A01FB68134403F57B
:10528C0030631A46002313613B695A01FB681344CF
:10529C0003F530631A464FF67F3393603B69013355
:1052AC003B6197F824301A463B699342B5D3FB68AF
:1052BC0003F500631B69FA6802F5006223F480733E
:1052CC0013617B6800229A617B686FF080425A619F
:1052DC0097F82630002B05D17B689B6943F01002B0
:1052EC007B689A617B689A69104B13437A68936167
:1052FC0097F82A30002B05D07B689B6943F0080295
:10530C007B689A6197F82E30012B07D17B689B69DB
:10531C0043F0804343F004037A689361FB7D1846A5
:10532C001837BD46BDE8804004B0704700383C805B
:10533C0080B485B000AF786039600023FB60FB68F7
:10534C000133FB60FB68B3F1706F01D903231BE0E1
:10535C007B681B69002BF2DA0023FB603B689B0126
:10536C0043F020027B681A61FB680133FB60FB6829
:10537C00B3F1706F01D9032306E07B681B6903F05E
:10538C002003202BF0D0002318461437BD465DF8BF
:10539C00047B704780B485B000AF78600023FB605D
:1053AC00FB680133FB60FB68B3F1706F01D9032319
:1053BC0018E07B681B69002BF2DA0023FB607B682A
:1053CC0010221A61FB680133FB60FB68B3F1706F4C
:1053DC0001D9032306E07B681B6903F01003102B33
:1053EC00F0D0002318461437BD465DF8047B704797
:1053FC0080B485B000AF78600B46FB707B68FB60B7
:10540C00FB6803F500631A68FB78F96801F5006125
:10541C0013430B60002318461437BD465DF8047B1C
:10542C00704780B485B000AF78607B68FB60FB6828
:10543C0003F560631B68FA6802F5606223F00303EE
:10544C001360FB6803F500635B68FA6802F50062A1
:10545C0043F002035360002318461437BD465DF831
:10546C00047B704780B483B000AF78607B685B6965
:10547C0003F0010318460C37BD465DF8047B7047FA
:10548C0080B485B000AF78600023FB60FB6801330B
:10549C00FB60FB68B3F1706F01D9032322E07B68DA
:1054AC001B69002BF2DA0A23FB6002E0FB68013B6C
:1054BC00FB60FB68002BF9D17B681B6943F0010290
:1054CC007B681A61FB680133FB60FB68B3F1706F9A
:1054DC0001D9032306E07B681B6903F00103012B50
:1054EC00F0D0002318461437BD465DF8047B704796
:1054FC0002440346934200D1704703F8011BF9E7BD
:10550C0070B50D4B0D4D5B1B9C100026A64209D1AE
:10551C0000F01AF80A4D0B4B5B1B9C100026A642A0
:10552C0005D170BD55F8043B98470136EEE755F8A8
:10553C00043B98470136F2E794550008945500084F
:10554C009455000898550008F8B500BFF8BC08BC85
:10555C009E467047F8B500BFF8BC08BC9E46704725
:10556C000000000000000000010203040607080907
:10557C0000000000010203040006101600061016BD
:08558C0090ACFF7F010000005C
:04559400D101000839
:04559800AD01000859
:0C559C000024F4001000000001000000DA
:04000005080011D10D
:00000001FF
